:020000040800F2
:10000000F8080020E91F0008CD010008CF01000812
:10001000D3010008D7010008DB0100080000000040
:10002000000000000000000000000000E1010008E6
:10003000DF01000800000000E3010008E5010008FE
:10004000E7010008E9010008EB010008ED010008E4
:10005000EF010008F1010008F3010008F5010008B4
:10006000F7010008250200085302000855020008A5
:1000700057020008590200085B0200085D020008F0
:100080005F020008610200086302000865020008C0
:1000900067020008690200086B0200086D02000890
:1000A000A5020008A7020008A9020008AB02000888
:1000B000AD020008AF020008B1020008B302000858
:1000C000B5020008B7020008B9020008BB02000828
:1000D000BD020008BF020008C1020008C3020008F8
:1000E000C5020008C7020008C9020008CB020008C8
:1000F000CD020008CF020008D1020008D302000898
:10010000D5020008D7020008D9020008DB02000867
:10011000DD020008DF020008E1020008E302000837
:10012000E5020008E7020008E9020008EB02000807
:1001300000F002F800F03CF80AA090E8000C8244BD
:100140008344AAF10107DA4501D100F031F8AFF29A
:10015000090EBAE80F0013F0010F18BFFB1A43F0A5
:1001600001031847F065070010660700103A24BF26
:1001700078C878C1FAD8520724BF30C830C144BF0C
:1001800004680C607047000000230024002500264E
:10019000103A28BF78C1FBD8520728BF30C148BFEA
:1001A0000B6070471FB5AFF300801FBD10B510BDC9
:1001B00003F064FF1146FFF7F5FF01F092F803F03A
:1001C00082FFFFF7F3FF03F085FF0000704700BFD9
:1001D000FEE700BFFEE700BFFEE700BFFEE7704797
:1001E0007047704770477047704770477047704757
:1001F00070477047704710B5042001F093FF80B13D
:10020000042001F0A0FF394800F070FF3848006872
:10021000401C3749086008460068032801DB0020BD
:10022000086010BD10B5082001F07CFF80B10820E7
:1002300001F089FF2D4800F059FF2D480068401E4D
:100240002B49086008460068002801DA022008608F
:1002500010BD7047704770477047704770477047D0
:1002600070477047704770477047704710B50A2451
:10027000402001F057FFA0B120211E4802F089FB69
:100280001A4800F033FF01201B4908741848006821
:10029000604017490860012018490860402001F0BB
:1002A00052FF10BD704770477047704770477047E6
:1002B0007047704770477047704770477047704786
:1002C0007047704770477047704770477047704776
:1002D0007047704770477047704770477047704766
:1002E000704770477047704770477047FFFF0A00BC
:1002F0000C000020000C01407400002010000020C1
:10030000FD4A108070474FF0C042108070474FF098
:10031000C0431880F84B1980704700B52220FFF7C2
:10032000F2FF00BD00E0401E0028FCD170470146EE
:10033000002000BF01E0491C401C0A78002AFAD1C5
:10034000704708B501217C2002F000FF4CF20370D9
:10035000ADF8000003208DF8020018208DF803008E
:100360006946E64802F06CFA4FF68070ADF800007E
:1003700003208DF8020018208DF803006946E0483C
:1003800002F05EFA0220ADF8000003208DF80200B2
:1003900010208DF803006946DA4802F051FA4FF454
:1003A0000050ADF8000003208DF8020010208DF8F9
:1003B00003006946D14802F043FA4FF40B60ADF8F0
:1003C000000003208DF8020018208DF80300694614
:1003D000CA4802F035FA4FF44070ADF8000003202F
:1003E0008DF8020010208DF803006946C64802F01F
:1003F00027FA0320ADF800008DF8020010208DF8D8
:1004000003006946BE4802F01BFA4FF40051BB4896
:1004100002F0BDFA08BD10B5FFF793FF0221B948FD
:1004200002F0B7FAB948FFF77DFF0221B54802F0A4
:10043000AEFAB648FFF776FF43F20801E320FFF774
:1004400066FF1221E720FFF762FF41F23121EF2022
:10045000FFF75DFF4FF480710120FFF758FF4FF465
:10046000E0610220FFF753FF41F238010320FFF75C
:100470004EFF00210420FFF74AFF40F20E21082022
:10048000FFF745FF00210920FFF741FF00210A2067
:10049000FFF73DFF00210C20FFF739FF00210D2061
:1004A000FFF735FF00210F20FFF731FF002110205B
:1004B000FFF72DFF07211120FFF729FF0021122050
:1004C000FFF725FF00211320FFF721FF9048FFF7DA
:1004D00029FF41F290211020FFF719FF40F221215E
:1004E0001120FFF714FF8A48FFF71CFF1A21122082
:1004F000FFF70DFF8648FFF715FF4FF4B0511320AB
:10050000FFF705FF22212920FFF701FF0A212B20F9
:10051000FFF7FDFE7E48FFF705FF00212020FFF7D3
:10052000F6FE00212120FFF7F2FE00213020FFF728
:10053000EEFE40F202313120FFF7E9FE40F20221E7
:100540003220FFF7E4FE40F203113520FFF7DFFE13
:1005500040F60C013620FFF7DAFE40F20551372055
:10056000FFF7D5FE40F204513820FFF7D0FE40F2ED
:1005700007713920FFF7CBFE40F201313C20FFF735
:10058000C6FE41F208013D20FFF7C1FE00215020C8
:10059000FFF7BDFEEF215120FFF7B9FE00215220E9
:1005A000FFF7B5FE40F23F115320FFF7B0FE4FF4C6
:1005B0001C516020FFF7ABFE01216120FFF7A7FE71
:1005C00000216A20FFF7A3FE00218020FFF79FFE95
:1005D00000218120FFF79BFE00218220FFF797FE7C
:1005E00000218320FFF793FE00218420FFF78FFE78
:1005F00000218520FFF78BFE10219020FFF787FE5A
:100600004FF4C0619220FFF782FE03219320FFF791
:100610007EFE4FF488719520FFF779FE0021972028
:10062000FFF775FE00219820FFF771FE40F23311AD
:100630000720FFF76CFE10BD36490880704735492A
:10064000891C0880704730B504460D46214620209D
:10065000FFF75DFE29462120FFF759FE30BD2DE949
:10066000F04304460D4616460027B846B94605F045
:10067000FF0949462046FFF7E6FF00BF27E0FFF7E6
:100680004CFE4FF0000812E036F81710012000FA77
:1006900008F0014205D11F48801C0088FFF730FE9A
:1006A00003E01C480088FFF72BFE08F10108B8F1B1
:1006B000100FE9D3802011491031086009F10100C1
:1006C00000F0FF0949462046FFF7BDFF7F1C182FA9
:1006D000D5D3BDE8F08370B504460E461546A5F1A6
:1006E0002000C5B205EB45000B4901EB0012314675
:1006F0002046FFF7B4FF70BD000002600014014007
:100700000018014000100140000C0140FFFF0500EF
:10071000FFFF0A00080000206E4D0008F0B50446F7
:100720000D460026002709E02A782146F8B2FFF797
:10073000D2FF07F1080087B26D1C761C287808B13B
:10074000012000E00020282E01D2012100E000213C
:100750000842E9D1F0BD10B50446FFA12046FFF7DD
:10076000DDFF10BD30B50546002440F23F110020EA
:10077000FFF769FFFFF7D1FD00BF03E02846FFF751
:10078000BFFD641CB4F5963FF8D38020FB49086098
:1007900030BD2DE9F05F04460D4600260027B04627
:1007A000B14640F23F1AB3462846FFF7C0FD8346E4
:1007B000BBF1C80F0BD951462046FFF744FF204636
:1007C000FFF7C9FFEEA12046FFF7A8FF3DE040F28A
:1007D0003F112046FFF737FF32E0B8F1140F1AD16E
:1007E0002878202801D16D1C0EE0002606E020228A
:1007F000B9B22046FFF76FFF103F761C4E45F6D387
:10080000A9F101002D1A834404F11800C4B240F28A
:100810003F1A4FF000082A7851462046FFF75BFF49
:1008200008F10108AAF110001FFA80FA6D1C09F105
:1008300001092878202803D14FF00009AAF11007F8
:100840005FEA0B00ABF1010BC7D1BDE8F09FF0B53B
:1008500004460D4616461F4621465020FFF757FD19
:10086000A019411E5120FFF752FD29465220FFF7E3
:100870004EFDE819411E5320FFF749FD2946204649
:10088000FFF7E1FEF0BD00B540F23F13EF2200217B
:100890000846FFF7DCFF00BD00B50346FFF73DFD4E
:1008A0001846FFF72DFD8020B449086000BD2DE9F2
:1008B000F04104460D461646984600272946204634
:1008C000FFF7C1FEB8F1000F0ED1FFF726FD00BF04
:1008D00004E0B1480088FFF713FD7F1CB742F8D34E
:1008E0008020A64908600EE000270AE0AA48008898
:1008F000FFF7D2FF681C85B229462046FFF7A3FE0A
:100900007F1CB742F2D3BDE8F081F0B504460D4636
:1009100017461E4600233A4629462046FFF7C7FFE2
:10092000A81981B200233A462046FFF7C0FF0123F1
:10093000324629462046FFF7BAFFE119491EC8B2E0
:10094000012332462946FFF7B2FFF0BD2DE9F043FF
:1009500004460D4616461F46DDF81C803B463246CF
:1009600029462046FFF773FFFFF7D7FC00BF0DE0D5
:10097000B14606E04046FFF7C3FCA9F1010000F0D4
:10098000FF09B9F1000FF5DC781E87B2002FEFDC0C
:1009900080207A490860FFF776FFBDE8F0832DE9F3
:1009A000F04304460D4616460320A0EB46074FF0E1
:1009B0000008B14670E005EB090291B204EB0802B1
:1009C000D0B2FFF740FE74480088FFF765FFA5EB43
:1009D000090291B204EB0802D0B2FFF734FE6E4870
:1009E0000088FFF759FF05EB090291B2A4EB08025A
:1009F000D0B2FFF728FE68480088FFF74DFFA5EB4F
:100A0000090291B2A4EB0802D0B2FFF71CFE6248C3
:100A10000088FFF741FF05EB080291B204EB0902E1
:100A2000D0B2FFF710FE5C480088FFF735FFA5EB5A
:100A3000080291B204EB0902D0B2FFF704FE564857
:100A40000088FFF729FF05EB080291B2A4EB090229
:100A5000D0B2FFF7F8FD50480088FFF71DFFA5EB67
:100A6000080291B2A4EB0902D0B2FFF7ECFD4A48AC
:100A70000088FFF711FF002F04DA062000EB880042
:100A8000074407E0A8EB09000A2101EB80000744B6
:100A9000A9F1010908F10108C8458CD9BDE8F08326
:100AA0002DE9F04304460D4616460320A0EB460709
:100AB0004FF00008B1469AE005EB090291B204EB51
:100AC0000802D0B2FFF7BFFD3348801C0088FFF753
:100AD000E3FEA5EB090291B204EB0802D0B2FFF7E6
:100AE000B2FD2D48801C0088FFF7D6FE05EB0902F9
:100AF00091B2A4EB0802D0B2FFF7A5FD2648801CF6
:100B00000088FFF7C9FEA5EB090291B2A4EB080229
:100B1000D0B2FFF798FD2048801C0088FFF7BCFE8C
:100B200005EB080291B204EB0902D0B2FFF78BFD8E
:100B30001948801C0088FFF7AFFEA5EB080291B2B0
:100B400004EB0902D0B2FFF77EFD1348801C008839
:100B5000FFF7A2FE22E000002020202020202020FD
:100B60002020202020202020202020202020202085
:100B700020202020202020202020000010140140D0
:100B8000202020537472696E6720746F6F206C6F21
:100B90006E672020000000000800002005EB08021E
:100BA00091B2A4EB0902D0B2FFF74DFDF9480088DD
:100BB000FFF772FEA5EB080291B2A4EB0902D0B2D6
:100BC000FFF741FDF3480088FFF766FE002F04DAC7
:100BD000062000EB8800074407E0A8EB09000A2183
:100BE00001EB80000744A9F1010908F10108C8459B
:100BF0007FF662AFBDE8F08330B5034600250024E0
:100C0000FFF78BFB00BF14E000240FE0585D0121CB
:100C1000A140084204D1DF480088FFF771FB04E0DF
:100C2000DC48801E0088FFF76BFB641C082CEDD3AA
:100C30006D1C41F298708542E6D38020D649086049
:100C400030BD704770477047F0B504460D461646F4
:100C50001F4621462020FFF75AFB29462120FFF797
:100C600056FB21465020FFF752FB29465220FFF742
:100C70004EFB31465120FFF74AFB39465320FFF720
:100C800046FBFFF74AFBF0BD30B540F23F132F2281
:100C900000210846FFF7D8FF00250DE0002407E0FB
:100CA000302D03DA4FF6FF70FFF72AFB601C84B289
:100CB000F02CF5DB681C85B2B5F5A07FEEDB3F2399
:100CC000EF2200210846FFF7BFFF00250DE00024BA
:100CD00007E0402D03DA4FF6FF70FFF711FB601CB1
:100CE00084B2F02CF5DB681C85B2B5F5A07FEEDB95
:100CF00040F23F13EF223F21BF20FFF7A5FF002561
:100D00000DE0002407E0302D03DA4FF6FF70FFF707
:100D1000F7FA601C84B2F02CF5DB681C85B2B5F5DF
:100D2000A07FEEDB40F23F13BF22FF210020FFF740
:100D30008BFF00250DE0002407E0402D03DA4FF67D
:100D4000FF70FFF7DDFA601C84B2F02CF5DB681C45
:100D500085B2B5F5A07FEEDBFF235F223F210020A7
:100D6000FFF772FF00250DE0002407E05F2D03DA96
:100D70004FF6FF70FFF7C4FA601C84B2F02CF5DB6D
:100D8000681C85B2B5F5A07FEEDB7F23BF223F2133
:100D90005F20FFF759FF00250DE0002407E0402DFC
:100DA00003DA4FF6FF70FFF7ABFA601C84B2F02C49
:100DB000F5DB681C85B2B5F5A07FEEDBFF23BF2213
:100DC0007F218F20FFF740FF00250DE0002407E082
:100DD000302D03DA4FF6FF70FFF792FA601C84B2F1
:100DE000F02CF5DB681C85B2B5F5A07FEEDBFF23A8
:100DF0008F22BF215F20FFF727FF00250DE0002491
:100E000007E0402D03DA4FF6FF70FFF779FA601C18
:100E100084B2F02CF5DB681C85B2B5F5A07FEEDB63
:100E2000BF238F227F215F20FFF70EFF00250DE0FB
:100E3000002407E0302D03DA4FF6FF70FFF760FA69
:100E4000601C84B2F02CF5DB681C85B2B5F5A07F80
:100E5000EEDB30BD10B501245CE0A2B2A021782009
:100E6000FFF79DFD142C08DD8C2C06DAA4F114008C
:100E700082B2A0217820FFF713FE282C08DDA02CD9
:100E800006DAA4F1280082B2A0217820FFF787FDBE
:100E90003C2C08DDB42C06DAA4F13C0082B2A0217F
:100EA0007820FFF7FDFD502C06DDA4F1500082B242
:100EB000A0217820FFF773FD642C06DDA4F1640007
:100EC00082B2A0217820FFF7EBFD782C06DDA4F19B
:100ED000780082B2A0217820FFF761FD8C2C06DD1E
:100EE000A4F18C0082B2A0217820FFF7D9FDA02CBC
:100EF00006DDA4F1A00082B2A0217820FFF74FFD0B
:100F0000B42C06DDA4F1B40082B2A0217820FFF752
:100F1000C7FD641CC82CA0DB10BD70B500252AE0FD
:100F200005EB850101F1780205EB8501C1F178003F
:100F300040F23F130021FFF787FE05EB8500C0F16B
:100F4000780000EB800084010CE0012101EB4400FB
:100F50001249085C060211F8140006433046FFF7F8
:100F6000CFF9641C05EB8500783000EB8000800130
:100F7000A042EADA6D1C192DD2DB70BD70B50446B3
:100F800040F23F13EF2200210846FFF75DFE0025E7
:100F900012E000000A000020101401403EB70208D1
:100FA000012101EB4500205C060214F81500064300
:100FB0003046FFF7A5F96D1CB5F5963FF0DB70BD27
:100FC00010B54548006820B101280DD0022820D175
:100FD00014E0FFF759FE4148FFF7D0FF00BF3E483D
:100FE00000680028FBD015E0FFF734FFFFF795FFFE
:100FF00000BF394800680128FBD00BE0FFF744FE32
:101000003748FFF7BBFF00BF334800680228FBD01A
:1010100000E000BF00BF3348006801285AD100201B
:101020003049086047E0FFF715FF2C48FFF7A6FF9F
:101030002D48FFF777F92C48FFF774F92A48FFF796
:1010400071F92948FFF76EF9FFF767FF224800683A
:1010500038B121480068012803D01F4800680228E1
:1010600000D136E02048FFF75DF91F48FFF75AF935
:101070001D48FFF757F91C48FFF754F91648006858
:1010800038B115480068012803D0134800680228C9
:1010900000D11EE0FFF7F8FD1148FFF76FFF12487F
:1010A000FFF740F91048FFF73DF90F48FFF73AF90D
:1010B0000D48FFF737F90B48006850B9064800683B
:1010C00038B105480068012803D0034800680228A9
:1010D000A9D100BF10BD00000C0000203E0F050884
:1010E0003E5F000810000020FFFF0A0000E0401EE5
:1010F0000028FCD1704708B54FF4C06001F00DFD29
:1011000017208DF8000000208DF801008DF80200F6
:1011100001208DF80300684601F005FD062101203D
:1011200001F08CFC402090490860002008710C20E0
:10113000487101208871084600F078FF4FF4E060A4
:1011400001F0EBFC1C208DF8000000208DF8010060
:101150008DF8020001208DF80300684601F0E3FCE1
:101160004FF4C06001F0D9FC09208DF80000012087
:101170008DF801008DF802008DF80300684601F03B
:10118000D2FC4FF4A06001F0C8FC08208DF80000EC
:1011900002208DF801008DF8020001208DF8030077
:1011A000684601F0C0FC08BD1CB50221042001F016
:1011B00045FC0321042001F041FC082000F0C3FF9E
:1011C000042000F0C0FF00208DF8040008208DF8F6
:1011D00005000C20009001208DF80600684600F004
:1011E00025FF1CBD00B597B00220019000200290A1
:1011F0000520039000200490059006904FF0805049
:10120000079000200890099008200A9010200B9069
:1012100000200C900D900E900F904FF48050109085
:10122000002011901290149001A81590169008A813
:1012300000F0E1FF0121002001F04AF917B000BDE4
:1012400008B501217D2001F081FF4FF44070ADF819
:10125000000003208DF8020010208DF8030069467D
:10126000424801F0EDFA0F20ADF8000003208DF8A0
:10127000020010208DF8030069463D4801F0E0FAB5
:101280000C20ADF8000003208DF8020004208DF83A
:1012900003006946364801F0D3FA08BD704710B51F
:1012A0003448006840F00100324908600846406850
:1012B000314908402F494860084600682F490840D6
:1012C0002C4908600846006820F480200860084621
:1012D000406820F4FE00486000208860FFF7DEFFD1
:1012E00010BD10B5FFF7DBFF0121084601F02EFF0E
:1012F000482000F084F90121080201F01AFFFFF7ED
:101300009FFF00F0C3FDFFF76DFFFFF74DFFFFF7F5
:1013100082F8FFF7F0FE01E0FFF752FEFCE710B5A0
:101320000121084601F01FFF4FF0804002F00EF946
:1013300040F6B8301249888048F69F400880002067
:10134000C88048804FF0804002F06BF90121880787
:1013500002F064FE01221146900702F0DAFB01213F
:10136000880702F0BBFB10BD20000020000C0140EC
:1013700000180140001002400000FFF8FFFFF6FED9
:1013800068000020FB48006820F08000FA49C1F89E
:101390000C0C70470021F94A126822F02002F64B2B
:1013A000C3F80C2800BF22E010F0800F07D0F34AEA
:1013B000126842F08002F04BC3F80C2806E0EF4AB6
:1013C000126822F08002EC4BC3F80C284206100E83
:1013D000EA4A126822F02002E74BC3F80C28E74AD9
:1013E000126842F02002C3F80C284A1CD1B2082926
:1013F000DADB70470021002000BF18E04204100C27
:10140000DE4A126842F02002DB4BC3F80C28DB4AAC
:10141000126822F02002C3F80C28D84A121F126862
:1014200012F0400F01D0421C90B24A1CD1B20C29DC
:10143000E4DB7047D24A127842434FF0E0235A610E
:1014400000229A6101221A6100BF4FF0E022116967
:1014500011F0010F02D011F4803FF6D000224FF0BE
:10146000E0231A619A61704770B5FFF78BFFD020B7
:1014700000F05AFD0320FFF7DDFF002000F06CFDB7
:1014800004462402002000F067FD0443E408BD4840
:101490000460BD48C460902000F046FD0320FFF7C3
:1014A000C9FF002000F058FD05462D02002000F085
:1014B00053FD0543ED08B4488560B4480560AD4868
:1014C000006840F08000AC49C1F80C0CAE48806860
:1014D00064280FD9AC48C06864280BD9AA48806832
:1014E000B0F57A6F06D2A848C068B0F57A6F01D21D
:1014F000012070BD0020FCE7F0B58BB0002700266E
:1015000000BFFFF7B1FF60B19F48806801A921F8D3
:1015100017009D48C06881B206A820F81710781CF3
:10152000C7B2402193480C3801F017FA10F0010FB0
:1015300001D10A2FE5DB0A2F5FD100BF002500246F
:1015400018E001A830F8141001AA601C32F810004D
:1015500081420DDD01A9601C31F8106001A830F84E
:101560001410601C22F8101001A820F81460012546
:10157000601CC4B2781EA042E3DC002DDED100BFA7
:101580000025002417E006A830F8142006A9601CE6
:1015900031F8100082420CDD601C31F8106006A8A2
:1015A00030F81420601C21F8102006A820F81460E0
:1015B0000125601CC4B2781EA042E4DC002DDFD1FE
:1015C000BDF80A00BDF80C100844BDF80E10084420
:1015D000032190FBF1F06C498860BDF81E10BDF846
:1015E00020000144BDF822000844032190FBF1F0E3
:1015F0006549C86001200BB0F0BD0020FBE74FF04B
:10160000E021096921F004014FF0E0221161014657
:10161000C21700EB5272D210594B1A701946097852
:101620004FF47A7251431A1D11607047544A121DCB
:10163000126842434FF0E0235A6100229A6101226E
:101640001A6100BF4FF0E022116911F0010F02D0C2
:1016500011F4803FF6D000224FF0E0231A619A6126
:1016600070472DE9FF5F0446002500260027A846A5
:101670000020039081460120029000BF00204249D3
:101680000874FFF739FF002858D0029878B13E4817
:1016900080683D4908600846C06848600846806820
:1016A00085B20846C06886B20020029046E0022C4F
:1016B00041D135488068A84202D2781CC7B203E005
:1016C00008F1010000F0FF082F48C068B04204D2C2
:1016D0000398401CC0B2039003E009F1010000F040
:1016E000FF09294A9268A91A01D40A4600E04A4231
:1016F000B2F52F7F09DC244AD268B01A01D4024621
:1017000000E04242B2F52F7F0EDD00208146804688
:10171000074603901C4800681B4985B2886008464C
:10172000406886B2C86018E01748806885B21648DD
:10173000C06886B202E0012C00D10EE00A20FFF75B
:1017400075FF40210B480C3801F007F910F0010F2C
:1017500094D00D48007C012890D000BF3220FFF7C4
:1017600065FF0020084908740A461268A91A0FD4B8
:101770000A460EE00C0C0140000001400C0801403C
:101780002800002050000020740000204C000020A1
:101790004A42C82A08DCF84A5268B01A01D4024604
:1017A00000E04242C82A01DD022C41DAF2494869D0
:1017B000002103F057F830D0EF49B1F91C0003F0D5
:1017C000E5F8ED490190086803F0F9F80090EA485F
:1017D0004169009803F0F8F88346019902F0C4FECD
:1017E000824603F0A7F8E4490860B1F91E0003F04F
:1017F000CDF8E1490190486803F0E1F80090DE4837
:101800008169009803F0E0F88346019902F0ACFE8C
:10181000824603F08FF8D8494860D7480068D64917
:10182000886008464068C860012004B0BDE8F09FA9
:10183000D14A1268A91A01D40A4600E04A42B2F518
:10184000FA7F0BDCCC4A5268B01A01D4024600E0A1
:101850004242B2F5FA7F01DC0020E6E7C64948695A
:10186000002102F0FFFF5DD0C349B1F91C0003F075
:101870008DF8C1490190086803F0A1F80090BE48B6
:101880004169009803F0A0F88346019902F06CFECC
:10189000824603F04FF8B8490860B1F91E0003F022
:1018A00075F8B5490190486803F089F80090B2488E
:1018B0008169009803F088F88346019902F054FE8C
:1018C000824603F037F8AC494860B1F91C0003F0D8
:1018D0005DF80190284603F072F80090A64841692F
:1018E000009803F071F88346019902F03DFE8246AC
:1018F00003F020F885B2A049B1F91E0003F046F8C4
:101900000190304603F05BF800909B488169009895
:1019100003F05AF88346019902F026FE824603F04E
:1019200009F886B2039AA2EB0901B7EB080001D4CB
:10193000034600E04342002901DB0A4600E04A4238
:10194000934220DD8C4A5268B01A8B4A1268A91A59
:1019500001D40B4600E04B42002801DB024600E0C8
:101960004242934207DD84480068A84201D2202009
:101970005BE7102059E780484068B04201D28020E0
:1019800053E7402051E77C4A1268A81A7A4A526805
:10199000B11A01D40B4600E04B42002801DB02469D
:1019A00000E04242934207DD73484068B04201D2F2
:1019B00080203AE7402038E76F480068A84201D20B
:1019C000202032E7102030E710B504466A488068CE
:1019D00090420DD868488068A04209D36648C06824
:1019E000984205D86448C068884201D3012010BDE0
:1019F0000020FCE72DE9F04F89B0002400BF1F2034
:101A00005E4908804FF6FF705D490880FEF7AAFE28
:101A10005CA16E20FEF782FE4FF47A70FFF706FE9F
:101A20004FF47840554908804FF6FF70FEF79AFE54
:101A300000205149087448610CE24F48007C01289D
:101A40007ED1FFF70EFE10F0010F0BD04A488068E0
:101A500005A921F824004848C06801EB84014880AA
:101A6000601CC4B2012C06D0022C09D0032C0CD06F
:101A7000042C04D10EE04FF6FF70FEF773FEE7E191
:101A80004FF6FF70FEF76EFEE2E14FF6FF70FEF7D5
:101A900069FEDDE1BDF81410BDF81820881A01D4E4
:101AA000014600E041420F46BDF81620BDF81A106D
:101AB000501A01D4014600E0414288467F4308FBAA
:101AC00008F807EB080002F003FCCDE9020102F080
:101AD0000DFBCDE9000102F0ABFB85B2BDF81C1097
:101AE000BDF82020881A01D4014600E041420F468B
:101AF000BDF81E20BDF82210501A01D4014600E0A6
:101B0000414288467F4308FB08F807EB080002F0D3
:101B1000DFFBCDE9020102F0E9FACDE9000102F0B4
:101B200087FB86B2304602F04AFF8146284602F023
:101B300046FF8246494602F0A3FD0490049800E067
:101B400087E102F0E9FCCDE9000116A00CC800987D
:101B500002F0C4FB0AD3049802F0DEFCCDE90201D6
:101B600012A00CC8029802F0F1FB23D200244FF619
:101B7000FF70FEF7F7FD6DE17400002030000020DB
:101B800032000020202020546F7563682053637258
:101B900065656E2041646A757374696E672E2E2EBA
:101BA00000000000666666666666EE3FCDCCCCCC73
:101BB000CCCCF03FBDF81410BDF81C20881A01D41D
:101BC000014600E041420F46BDF81620BDF81E1048
:101BD000501A01D4014600E0414288467F4308FB89
:101BE00008F807EB080002F073FBCDE9020102F0F0
:101BF0007DFACDE9000102F01BFB85B2BDF818109B
:101C0000BDF82020881A01D4014600E041420F4669
:101C1000BDF81A20BDF82210501A01D4014600E088
:101C2000414288467F4308FB08F807EB080002F0B2
:101C30004FFBCDE9020102F059FACDE9000102F0B3
:101C4000F7FA86B2304602F0BAFE8146284602F024
:101C5000B6FE8246494602F013FD0490049802F055
:101C60005BFCCDE90001AFF2C4000CC8009802F0A3
:101C700035FB0BD3049802F04FFCCDE90201AFF223
:101C8000D4000CC8029802F061FB05D200244FF684
:101C9000FF70FEF767FDDDE0BDF81810BDF81C20F1
:101CA000881A01D4014600E041420F46BDF81A20CF
:101CB000BDF81E10501A01D4014600E0414288468A
:101CC0007F4308FB08F807EB080002F001FBCDE9B1
:101CD000020102F00BFACDE9000102F0A9FA85B287
:101CE000BDF81410BDF82020881A01D4014600E088
:101CF00041420F46BDF81620BDF82210501A01D4FB
:101D0000014600E0414288467F4308FB08F807EBA4
:101D1000080002F0DDFACDE9020102F0E7F9CDE9B1
:101D2000000102F085FA86B2304602F048FE814694
:101D3000284602F044FE8246494602F0A1FC049087
:101D4000049802F0E9FBCDE90001AFF2A8100CC83D
:101D5000009802F0C3FA0BD3049802F0DDFBCDE942
:101D60000201AFF2B8100CC8029802F0EFFA05D2E7
:101D700000244FF6FF70FEF7F5FC6BE0BDF818107D
:101D8000BDF81420881A02F001FE8146014632484F
:101D900002F076FC31494861BDF81810BDF81420F6
:101DA000881802F0F3FD03902C484169039802F073
:101DB0000BFE83462A4902F0B0FE82464FF0804176
:101DC00002F05EFC814602F07DFD00B2234988836B
:101DD000BDF81E10BDF81620881A02F0D7FD814606
:101DE0000146204802F04CFC1C498861BDF81E10D9
:101DF000BDF81620881802F0C9FD039017488169C4
:101E0000039802F0E1FD8346174902F086FE824600
:101E10004FF0804102F034FC814602F053FD00B2E5
:101E20000E49C8831F20114908804FF6FF70FEF746
:101E300099FC0FA16E20FEF771FC4FF4E160FFF7F3
:101E4000F5FB4FF6FF70FEF78DFC09B0BDE8F08F93
:101E500000BF00BFF1E5000000004843740000200F
:101E60000000704300008C430000A04330000020BD
:101E7000202020546F7563682053637265656E205F
:101E800041646A757374204F4B21000000B587B020
:101E90000121080301F05AF90121042001F056F94B
:101EA000E020ADF8040003208DF8060018208DF81E
:101EB000070001A92B4800F0C3FC1020ADF8040076
:101EC00003208DF8060010208DF8070001A9254891
:101ED00000F0B6FC1021234800F059FD0020ADF8B9
:101EE00008004FF48270ADF80A000020ADF80C0035
:101EF0000220ADF80E000120ADF810004002ADF850
:101F000012001820ADF814000020ADF816000720CC
:101F1000ADF8180002A9144801F0A8F901211248EF
:101F200001F03CFA07B000BD10B5044600BF022125
:101F30000D4801F0BCFA0028F9D021460A4801F00A
:101F400063FA00BF0121084801F0B1FA0028F9D076
:101F5000054801F05BFA10BD10B504462046FFF7B6
:101F6000E3FF10BD000801400030014030BF704762
:101F700020BF704740BF7047BFF36F8F7047BFF3FC
:101F80004F8F7047BFF35F8F704701DF7047EFF3EC
:101F90001480704780F31488BFF36F8F7047EFF39E
:101FA0000980704780F309887047EFF30880704715
:101FB00080F30888704762B6704772B67047EFF3D7
:101FC0001080704771B6704761B67047EFF31380A9
:101FD000704780F311887047EFF31280704740BA62
:101FE000704700BA7047000003480047034804499F
:101FF000044A054B7047000031010008F80000203A
:10200000F8080020F8040020F804002000205049BF
:1020100008605049C1F804044D4908310860091DA1
:1020200008604D484A491431086070478179002999
:102030004CD04849D1F8001402689143454AC2F88F
:1020400000141146D1F8041402689143404A121D4D
:10205000116001793F4A1144D1F80014026811431C
:1020600002793C4B1A44C2F800141946D1F80814FE
:10207000026891431A46C2F808141146D1F80C14AC
:1020800002689143324A0C3211604179102910D113
:102090001946D1F80814026811431A46C2F8081408
:1020A0001146D1F80C14026811431A46C2F80C14F8
:1020B00018E04179274A1144D1F80014026811430D
:1020C0004279244B1A44C2F800140BE00179214AEA
:1020D0001144D1F800140268914302791D4B1A444F
:1020E000C2F8001470470021016001710C21417198
:1020F0000021817170471649103109680143154A62
:10210000C2F81014704701460020114A14321268B8
:102110000A4201D0012000E0002070470C49143130
:1021200008607047014600200022094B1B6803EA43
:102130000102084BD3F814340B4202D00AB101203B
:1021400000E0002070470249143108607047000029
:102150000004014000000140FFFF070030B943F2D6
:10216000DB014FF0204242F8201005E043F2D2019B
:102170004FF0204242F820106FF07042411C4FF0A7
:10218000204343F8212011461A4602EB8002C2F890
:102190000411704710280AD118214FF0204211660F
:1021A000402151664FF0FC319166D16610E0182154
:1021B000F94A116040214FF02042C2F884104FF0DC
:1021C000FC31F54A083211604FF02042C2F88C1001
:1021D00070471820F0492031086000200906C1F836
:1021E000A4004FF0FC30EC4928310860091D08605C
:1021F000091D08607047D0E901121143C2681143FC
:10220000026911434269114382691143C269114352
:10221000026A1143426A1143826A1143C26A11433E
:10222000026B11434FF02043026843F8221081688B
:10223000082908D11A46016852F8211041F04001DE
:10224000026843F82210416B0968426B526841EA08
:102250000211426B926841EA0221426BD26841EA64
:102260000241426B126941EA0251426B526941EAF2
:102270000262416B89690A430168491C4FF020439F
:1022800043F82120816AB1F5804F1ED1816B096826
:10229000826B526841EA0211826B926841EA022124
:1022A000826BD26841EA0241826B126941EA0251B3
:1022B000826B526941EA0261826B92691143026842
:1022C00003EB8202C2F8041108E06FF070414FF096
:1022D0002043026803EB8202C2F80411704730B554
:1022E000002100220023446844F0080485682C4340
:1022F000C5682C4305692C4345692C43856944EA2C
:102300004524C56944EA4531046A2468056A6D6854
:1023100044EA0524056AAD6844EA0544056AED68A7
:1023200044EA0562446A2468456A6D6844EA052403
:10233000456AAD6844EA0544456AED6844EA0563C8
:102340000468102C05D14FF020442166A266E36694
:1023500008E0914C21604FF02044C4F888208E4C56
:102360000C34236030BDD0E900121143826841EA89
:102370004221C26841EA4231874A20321160016934
:1023800009680269526841EA02210269926841EAD9
:1023900002410269D26841EA02617F4A2832116033
:1023A000416909684269526841EA022142699268BA
:1023B00041EA02414269D26841EA0261764A2C321E
:1023C0001160816909688269526841EA0221826963
:1023D000926841EA02418269D26841EA02614FF0A3
:1023E0002042C2F8B0107047002101600221416014
:1023F00000218160C160016141618161C1614FF46F
:10240000805101624900416200218162C162016321
:102410000F21426B1160426B5160FF21426B916052
:102420000F21426BD160426B1161426B51610021FF
:10243000426B91610F21826B1160826B5160FF21B1
:10244000826B91600F21826BD160826B1161826B14
:1024500051610021826B9161704710210160002160
:1024600041608160C160016141618161C161FC21A4
:10247000026A1160026A5160026A9160026AD16068
:10248000426A1160426A5160426A9160426AD16058
:1024900070470021016041608160C160FC210269D8
:1024A000116002695160026991600269D1604269FC
:1024B000116042695160426991604269D1608269EC
:1024C000116082695160826991608269D160704750
:1024D00051B14FF0204252F8202042F001024FF05B
:1024E000204343F8202009E04FF0204252F82020FA
:1024F0002A4B1A404FF0204343F82020704799B1EF
:10250000102808D14FF02042126E42F004024FF022
:1025100020431A661DE0204A126842F004024FF080
:102520002043C3F8802014E0102809D14FF0204246
:10253000126E1A4BDB1E1A404FF020431A6608E059
:10254000154A1268154BDB1E1A404FF02043C3F8A2
:102550008020704748B110492031096841F00401DA
:102560004FF02042C2F8A01009E00B492031096861
:102570000A4AD21E11404FF02042C2F8A010704704
:10258000B9B110280CD14FF02042126E42F0400237
:102590004FF020431A661FE0800000A0FEFF0F00EE
:1025A000714A126842F040024FF02043C3F8802085
:1025B00012E0102808D14FF02042126E6B4B1A40E7
:1025C0004FF020431A6607E0674A1268674B1A40CB
:1025D0004FF02043C3F880207047014600201029A7
:1025E00003D14FF02042506F02E05F4A143210686E
:1025F000704710B5F2B1102807D14FF020435B6E41
:102600000B434FF02044636632E0B0F5807F08D181
:10261000554B1B1D1B680B434FF02044C4F88430FE
:1026200026E0514B24331B680B434FF02044C4F881
:10263000A4301DE0102807D14FF020435B6E8B4380
:102640004FF02044636613E0B0F5807F08D1464B1D
:102650001B1D1B688B434FF02044C4F8843007E0F7
:10266000414B24331B688B434FF02044C4F8A43003
:1026700010BD10B5034600200022102B03D14FF0EF
:102680002044626E09E0B3F5807F03D1364C241DEF
:10269000226802E0344C243422680A4201D001202E
:1026A00000E0002010BD102807D14FF02042526EEC
:1026B0008A434FF020435A6613E0B0F5807F08D17B
:1026C000294A121D12688A434FF02043C3F8842020
:1026D00007E0254A243212688A434FF02043C3F8AA
:1026E000A420704770B50246002000230024002576
:1026F000102A03D14FF02046736E09E0B2F5807FB7
:1027000003D1194E361D336802E0174E2436336864
:1027100003EA010403EAD10514B10DB1012000E080
:10272000002070BD102808D14FF02042526E22EADE
:10273000D1024FF020435A6615E0B0F5807F09D1F1
:10274000094A121D126822EAD1024FF02043C3F851
:10275000842008E0044A2432126822EAD1024FF0B1
:102760002043C3F8A4207047800000A0BFFF0F00E3
:1027700010B50446C049601A8C422FD009DCBF480E
:10278000201810D0B0F5806F16D0B0F5006F4AD188
:102790001BE0B0F5806F2AD0B0F5006F30D0B0F5F7
:1027A000406F40D135E00121042000F0E9FC002118
:1027B000042000F0E5FC37E00121082000F0E0FCF7
:1027C0000021082000F0DCFC2EE00121102000F0A8
:1027D000D7FC0021102000F0D3FC25E001212020AF
:1027E00000F0CEFC0021202000F0CAFC1CE00121FA
:1027F000402000F0C5FC0021402000F0C1FC13E0A7
:102800000121802000F0BCFC0021802000F0B8FCF9
:102810000AE00121080200F0B3FC00214FF48070AF
:1028200000F0AEFC00E000BF00BF10BD10B50121FC
:10283000084600F0A5FC0021012000F0A1FC10BD1D
:10284000F0B500220023002400250026002791F87F
:1028500003C00CF00F0291F803C01CF0100F03D05E
:1028600091F802C04CEA0202B1F800C01CF0FF0F60
:1028700030D0066800242AE04FF0010C0CFA04F571
:10288000B1F800C00CEA0503AB421FD1A5004FF020
:102890000F0C0CFA05F7BE4302FA05FC4CEA0606DB
:1028A00091F803C0BCF1280F05D14FF0010C0CFAD0
:1028B00004FCC0F814C091F803C0BCF1480F05D166
:1028C0004FF0010C0CFA04FCC0F810C0641C082C7A
:1028D000D2D30660B1F800C0BCF1FF0F34DD46680A
:1028E00000242EE004F1080C4FF0010E0EFA0CF556
:1028F000B1F800C00CEA0503AB4221D1A5004FF0AE
:102900000F0C0CFA05F7BE4302FA05FC4CEA06066A
:1029100091F803C0BCF1280F05D104F1080C0EFAA0
:102920000CFEC0F814E091F803C0BCF1480F07D1C9
:1029300004F1080C4FF0010E0EFA0CFEC0F810E086
:10294000641C082CCED34660F0BD4FF6FF710180A9
:10295000022181700421C1707047024600209368F3
:102960000B4201D0012000E000207047014688683A
:1029700080B2704702460020D3680B4201D001208C
:1029800000E0002070470146C86880B270470161CE
:102990007047416170470AB1016100E041617047D1
:1029A000C16070474FF480320A4382618161826165
:1029B0008269826970470022314B1A684FF6807332
:1029C0001A4042EA00120A432D4B1A6070472D4903
:1029D000C8617047F0B50022002300250024284E6E
:1029E0007568C0F3034482B200F44016B6F5401F88
:1029F00008D125F07065224E766826F07066204F6B
:102A00007E6012E000F48016B6F5801F06D1032622
:102A100006FA04F39D4345F0706506E0460D360165
:102A200002FA06F6B54345F0706521B1460D360150
:102A300002FA06F63543124E7560F0BD30B500223D
:102A40008B071C0F0F2303FA04F20D4B08338C1075
:102A500053F8244094438D1043F825408C1053F8CC
:102A600024308C07240F00FA04F42343044C083468
:102A70008D1044F8253030BD0014014000F8FEBF31
:102A800000000140000020420020411EF24A116077
:102A90000A09F1498039C1F88420411E4FF0E02233
:102AA000C2F880120A09ED490A6000BF04E0002262
:102AB000EB4941F82020401C0F28F8D37047002034
:102AC0004FF02061E74A116000214FF0E022C2F888
:102AD000081DE549E34A083211600021121D11600A
:102AE000121D116000BF05E00022DE49143141F8DB
:102AF0002020401C0328F7D30021DA4A203211603D
:102B0000491E4FF0E022C2F8281DD64A2832116033
:102B10004FF0E022C2F8301D7047D3490143D14A3B
:102B2000083211607047F0B5002100220023002414
:102B30000F25C678002E36D0CA4E0836366806F401
:102B4000E066C6F5E066310AC1F10404CD4046787E
:102B500006FA04F186782E40314309010678B6075B
:102B6000F60EB140BE4E0778BF1056F82720067803
:102B7000B607F70EFF2606FA07F39A4319400A43F1
:102B8000B74E0778BF1046F82720067806F01F07D3
:102B90000126BE4007787F114FF0E02C0CEB870731
:102BA000C7F800610BE0067806F01F060127B74062
:102BB000A94E90F800C04FEA6C1C46F82C70F0BD8E
:102BC0000021017041708170C170704710B5FFF72E
:102BD000F4F910BD10B5FFF7EEF910BD10B5FFF711
:102BE000F1F910BD10B5FFF7EFF910BD10B50446AF
:102BF0002001FFF7EEF910BD10B5FFF7EDF910BD9C
:102C000098480068C0F30930704710B501460020AD
:102C1000002201F01F04012303FA04F28E4B8033DB
:102C20004C1153F824301340934201D1012000E0AD
:102C3000002010BD8D490860704700F01F0101227F
:102C40008A408649091F431141F82320704785486F
:102C50000068C0F30900704710B50146002000224B
:102C600001F01F04012303FA04F27C4B7C334C1166
:102C700053F824301340934201D1012000E000209A
:102C800010BD7848001F00687047794A0A40024327
:102C9000744B1B1D1A6070477348001D7149083141
:102CA000086070477048401C6E49083108607047E2
:102CB00041B16C4A0C32126802434FF0E023C3F872
:102CC000102D07E0674A0C32126882434FF0E02370
:102CD000C3F8102D704710B5002200F01F04012327
:102CE00003FA04F241B15F4B20331B6813434FF0EA
:102CF000E024C4F8243D07E05A4B20331B6893437B
:102D00004FF0E024C4F8243D10BDF0B50023FF24AB
:102D100000250026534F08373F6807F4E067C7F5E2
:102D2000E0673E0AC6F10403F44001FA03F602EA42
:102D300004073E43360100F0C0039B09C0F30124A1
:102D4000E700BE404FEAC40CFF2707FA0CF5454FD9
:102D5000143757F823C02CEA050C47F823C057F85E
:102D600023C04CEA060C47F823C0F0BD10B501465D
:102D70000020002200238B0A03F00F03012404FA31
:102D800003F3384C2034246804EA03029A4201D148
:102D9000012000E0002010BD002100F01F01314A99
:102DA000136801228A4013434FF0E022C2F8043D29
:102DB000704710B5002100F01F012A4A13684C1E0D
:102DC0000122A24013434FF0E022C2F8043D10BD9F
:102DD00010B50146002000230022C1F383320124F4
:102DE00004FA02F21F4C2034246804EA02039342DE
:102DF00001D1012000E0002010BD30B501460020C7
:102E000000220023C1F38142C1F301531AB9154CCA
:102E10002834206811E0012A0CD1124C2434246893
:102E2000DD0024FA05F0022B02D000F00F0004E0D0
:102E3000C0B202E00B4C2C34206830BD01460020AB
:102E40000022C1F380521AB9064B3033186802E0F1
:102E5000044B34331868704780E100E084E200E0FE
:102E600000E400E004ED00E00000FA0500EF00E0FF
:102E700080FFFF1FDE48006840F00100DC49086069
:102E800008464068DB490840D94948600846006860
:102E9000D9490840D64908600846006820F48020D7
:102EA00008600846406820F4FE0048600020886002
:102EB0007047CF49096821F48031CD4A116011462D
:102EC000096821F480211160B0F5803F03D0B0F58E
:102ED000802F0ED106E0C649096841F48031C44A0A
:102EE000116007E0C249096841F4A021C04A11609D
:102EF00000E000BF00BF704710B50146002200236C
:102F000000204A11012A02D1B94C236806E0022AA6
:102F100002D1B74C236A01E0B54C636A01F01F028D
:102F2000012494401C4201D0012000E0002010BD8B
:102F300010B5002400BF3120FFF7DEFFAF49087055
:102F4000081F0068401C091F0860081D007828B988
:102F500008460068A0F58071FF39ECD13120FFF7F9
:102F6000CBFF08B1012400E00024204610BD002161
:102F70009F4A116821F0F80141EAC00111607047D1
:102F80009F49086070470022994B5A6822F47C12CE
:102F900040EA01031A43964B5A6070479849086605
:102FA00070470021924A516821F0030101435160AA
:102FB00070478F48406800F00C00704700218C4A31
:102FC000516821F0F0010143516070470021884AA7
:102FD000516821F4E0610143516070470021844A47
:102FE000516821F4605141EAC0015160704729B134
:102FF0007F4A527A02437E4B5A7206E07C4A527AEA
:10300000C343DBB21A407A4B5A7270477C49D831BD
:10301000086070470021764A516821F4404101431D
:10302000516070470021724A20321170704A82F854
:103030002010012802D004280AD104E001216C4AA2
:103040002032117005E00521694A2032117000E03C
:1030500000BF00BF70476B49086070476449096A48
:103060000143634A116270476649443908607047FA
:1030700030B500210022002300245D4D6D6805F06D
:103080000C0121B1042905D0082923D105E05E4DAA
:10309000056022E05C4D05601FE0554D6D6805F44C
:1030A0007012022505EB9242514D6D6805F4803394
:1030B0001BB9564D554305600BE04D4D6D6815F439
:1030C000003F03D0514D5543056002E04E4D55433E
:1030D000056002E04C4D056000BF00BF444D6D68C7
:1030E00005F0F00109094A4D6C5C0568E540456052
:1030F0003F4D6D6805F4E061090A454D6C5C45681B
:10310000E54085603A4D6D6805F46051C90A404D4F
:103110006C5C4568E540C560354D6D6805F440411F
:10312000890B3B4D10356C5CC568B5FBF4F505614A
:1031300030BD29B12E4A526902432D4B5A6104E039
:103140002B4A526982432A4B5A61704729B1284A57
:1031500092690243264B9A6104E0254A92698243B0
:10316000234B9A61704729B1214AD2690243204B0F
:10317000DA6104E01E4AD26982431D4BDA6170476E
:1031800029B11B4AD2680243194BDA6004E0184A9D
:10319000D2688243164BDA60704729B1144A12692B
:1031A0000243134B1A6104E0114A12698243104B27
:1031B0001A61704713494039086070471049C86464
:1031C00070470B49C87170470948406A40F08070E9
:1031D00007494862704701460020054A92680A4242
:1031E00001D0012000E0002070470149887270473B
:1031F000001002400000FFF8FFFFF6FE6400002010
:10320000000042428004424200127A0000093D0060
:103210003E67070810B50446CB4820180FD0B0F51C
:10322000806F16D0B0F5784F1DD101210803FFF74C
:10323000A7FF00214FF48050FFF7A2FF14E0012107
:103240008803FFF7AAFF00214FF48040FFF7A5FF96
:103250000AE00121C803FFF7A0FF00214FF400405E
:10326000FFF79BFF00E000BF00BF10BD10B50022BC
:10327000028802F441520B884C8823438C882343F4
:10328000CC8823430C8923434C8923438C892343D3
:10329000CC8923431A430280838B4FF2FF7423406F
:1032A00083830B8A038210BD2DE9F04786B0044664
:1032B0000D4600260227B0464FF00109B246A08B0A
:1032C0004FF240010840A08302202084A68B288969
:1032D000022801D100BF31E0A88810B94FF00109E0
:1032E00001E04FF0020901A8FFF7C2FEE888B0F53F
:1032F000007F0BD1019800EB800040002989090272
:10330000B0FBF1F0401D1FFA80FA0CE04FEA4910C3
:1033100029894843019901EB81014900B1FBF0F093
:10332000401D1FFA80FA0A20BAFBF0FA0AF00108E1
:10333000AAEB0800C0F34F074FEA0828022F01DB71
:10334000FF2F02DD02274FF0000847EA0800E98856
:1033500008432084288840F4006069880843A988CD
:103360000843698908430643A68306B0BDE8F08791
:103370000021018041808180C18001814181818162
:10338000C181072101827047002101804180818035
:10339000C1800221018100214181704721B1028851
:1033A00042F04002028004E002884FF6BF731A40E8
:1033B0000280704721B1828B42F48062828304E0F4
:1033C000828B4FF6FF331A408283704770B500231B
:1033D00000240B1101259D40ACB21AB1858825430C
:1033E000858004E08588E643B6B23540858070BDAF
:1033F00010B51AB183880B43838004E08388CC43E3
:10340000A4B22340838010BD818170470146888922
:103410007047A1F57E42FF3A04D0028842F48072E0
:10342000028004E002884FF6FF631A400280704772
:1034300021B1828842F00402828004E082884FF643
:10344000FB731A408280704702884FF2FF731A4064
:10345000028002880A4302807047018841F480514B
:103460000180704721B1028842F40052028004E0DA
:1034700002884DF6FF731A40028070470246002012
:10348000012901D0108B00E0908A70470146088A1C
:103490007047B1F5804F04D1028842F48042028027
:1034A00004E002884BF6FF731A4002807047024620
:1034B000002013890B4201D0012000E0002070475A
:1034C000202905D10289028842F04002028007E0EB
:1034D000402901D0082901D1028901E0CA430281B3
:1034E0007047F0B50246002000230024002501F0BB
:1034F0000F070126BE40B3B20C110126A640B4B29C
:10350000968806EA040516891E4202D00DB10120F4
:1035100000E00020F0BD10B50022552905D1038937
:10352000038843F0400303800CE0562901D053295F
:1035300001D1038906E001F00F040123A3409AB2F0
:10354000D343038110BD000000C8FFBF10B504467F
:10355000F849601A8C4245D00CDCB4F1804F1DD084
:10356000F548201823D0B0F5806F29D0B0F5006F52
:1035700054D12EE0B0F5806F3DD0B0F58E3F03D032
:10358000B0F5923F4AD13FE00121C802FFF7F8FDB4
:1035900000214FF40060FFF7F3FD40E001210846F1
:1035A000FFF7FBFD00210120FFF7F7FD37E00121C8
:1035B0000220FFF7F2FD00210220FFF7EEFD2EE0D2
:1035C00001210420FFF7E9FD00210420FFF7E5FDBC
:1035D00025E001210820FFF7E0FD00210820FFF78A
:1035E000DCFD1CE001211020FFF7D7FD0021102099
:1035F000FFF7D3FD13E001212020FFF7CEFD0021CE
:103600002020FFF7CAFD0AE001214803FFF7B8FDBB
:1036100000214FF40050FFF7B3FD00E000BF00BFF2
:1036200010BD028802F08F020280CA884B881A43BC
:1036300003881A4302808A8882850A8802850122CB
:103640008282BE4A904202D0BD4A904201D10A7A9B
:103650000286704770B5002200230024058C4FF6C7
:10366000FE7635400584038C8488028B4FF68F7577
:103670002A400D882A43751E2B400D892B434D8807
:103680002B43CD888586AD4DA84202D0AC4DA842D3
:1036900013D14FF6F7752B404D892B434FF6FB7531
:1036A0002B408D882B4347F6FF652C4047F6FF558E
:1036B0002C408D892C43CD892C4384800283038444
:1036C00070BD70B5002200230024058C4FF6EF7604
:1036D00035400584038C8488028B48F6FF752A40A8
:1036E0000D882D0642EA15424FF6DF752B400D89F5
:1036F0002D0543EA15434D882D0543EA1543CD8832
:1037000005878E4DA84202D08D4DA8421BD14FF6A1
:103710007F752B404D892D0543EA15434FF6BF7544
:103720002B408D882D0543EA154347F6FF352C4085
:1037300047F2FF752C408D89AD0444EA1544CD89CC
:10374000AD0444EA154484800283038470BD70B5DF
:10375000002200230024058C4FF6FF6635400584C7
:10376000038C8488828B4FF68F752A400D882A43FC
:103770004FF6FF552B400D892D0643EA15434D8822
:103780002D0643EA1543CD8885876C4DA84202D0AB
:103790006B4DA8421BD14FF2FF752B404D892D0672
:1037A00043EA15434FF6FF352B408D882D0643EA3B
:1037B000154346F6FF752C4045F6FF752C408D8964
:1037C0002D0544EA1544CD892D0544EA154484802D
:1037D0008283038470BD70B5002200230024058C11
:1037E0004EF6FF7635400584038C8488828B48F63C
:1037F000FF752A400D882D0642EA15424DF6FF75E9
:103800002B400D892D0743EA15434D882D0743EAC8
:103810001543CD88A0F84050484DA84202D0484DED
:10382000A84205D1C4F30D048D89AD0544EA1544C1
:1038300084808283038470BD828B4FF2FF331A40F1
:103840008283828B0B0642EA134282837047F0B573
:10385000002400250026078C4EF6FF7C07EA0C07A3
:103860000784848B058C0F073E0C40F6FF473C40D5
:1038700017063F0C4FEA037C47EA1C473C434DF6D2
:10388000FF773D4046F480573D4384830584F0BD77
:10389000828B4FF6F3731A408283828B0A438283B2
:1038A0007047F0B5002400250026078C4FF6FF6C0A
:1038B00007EA0C070784848B058C0F063E0C4FF635
:1038C0000C773C401F0542EA17473C434FF6FF5731
:1038D0003D4046F480773D4384830584F0BD028BF0
:1038E0004FF2FF331A400283028B0B0642EA134267
:1038F00002837047F0B5002400250026078C4FF6A0
:10390000EF7C07EA0C070784048B058C0F053E0C3F
:1039100040F6FF473C401F0744EA1744170644EAB5
:1039200017444FF6DF773D4046F010073D430483D0
:103930000584F0BD0010004000FCFFBF002C0140DA
:1039400000340140028B4FF6F3731A400283028B5E
:103950000A4302837047F0B500240025068C4FF619
:10396000FE773E400684048B058C4FF60C7634407F
:103970001E0542EA164634437E1E354041F00106DC
:10398000354304830584F0BD70B504460D46288890
:1039900050B92B89AA8869882046FFF7DCFFE9889F
:1039A0002046FFF7CFFF25E0288804280AD12B897D
:1039B000AA8869882046FFF79DFFE9882046FFF71F
:1039C0008EFF17E0288808280AD12B89AA886988E1
:1039D0002046FFF766FFE9882046FFF759FF09E018
:1039E0002B89AA8869882046FFF731FFE98820469D
:1039F000FFF722FF70BD2DE9F04104460D46002679
:103A00000127688808B9022600E00026A888012856
:103A100001D1022700E001272888A0B92B89AA88B4
:103A200069882046FFF797FFE9882046FFF78AFF5D
:103A30002B893A4631462046FFF75CFFE98820464D
:103A4000FFF74DFF13E02B89AA8869882046FFF70E
:103A500051FFE9882046FFF742FF2B893A4631465D
:103A60002046FFF778FFE9882046FFF76BFFBDE8A7
:103A7000F0810A884B881A438B881A43CB881A43F3
:103A80000B891A434B891A438B891A43A0F84420A7
:103A900070474FF6FF71818000210180C180418015
:103AA000017270470021018041808180C1800181C5
:103AB00041818181C18170470021018041800121C4
:103AC00081800021C18001817047002101804180F7
:103AD0008180C180018141818181704721B102884B
:103AE00042F00102028004E0028840F2FE331A40F4
:103AF0000280704731B1B0F8442042F40042A0F88F
:103B0000442005E0B0F84420C2F30E02A0F844209F
:103B1000704710B51AB183890B43838104E0838910
:103B2000CC43A4B22340838110BD8182704741EA17
:103B30000203A0F84830704710B51AB183890B43CF
:103B4000838104E08389CC43A4B22340838110BDE8
:103B500001894FF6F87211400181704700220289F5
:103B60004FF68F731A400A430281704730B50446FE
:103B70000D4629462046FFF7F1FF208940F0070057
:103B8000208130BD2DE9F04104460D4616461F4602
:103B9000602D06D13B46012231462046FFF7AAFEA2
:103BA00005E03B46012231462046FFF7D4FE294678
:103BB0002046FFF7D3FF208940F007002081BDE8B1
:103BC000F08170B500240489E4B241EA02051E06C2
:103BD00045EA16452C43048170BD2DE9F0410446A9
:103BE0000D4616469846002743463246294620464B
:103BF000FFF7E7FF27894FF6F870074047F0070700
:103C00004FF68F70074047F070072781BDE8F081BD
:103C1000F0B504460D4616461F463B463246294639
:103C20002046FFF7CEFF208940F480402081F0BD80
:103C30000185828270470022028840F28F331A4049
:103C40000A4302807047F0B500240025002604894D
:103C5000058B068C4FF6F8773C400C434FF6FC473B
:103C60003D4040F201173D434FF6DD773E401F05D2
:103C700042EA17473E43048105830684F0BD0022D3
:103C8000028B4FF68F731A400A430283704700225B
:103C9000028B48F6FF731A400B0642EA1342028376
:103CA00070470022828B4FF68F731A400A4382833B
:103CB00070470022828B48F6FF731A400B0642EAD7
:103CC00013428283704721B1028842F08002028051
:103CD00004E0028840F27F331A400280704721B12D
:103CE000828842F00402828004E082884FF6FB73EF
:103CF0001A408280704721B1828842F00802828097
:103D000004E082884FF6F7731A408280704721B131
:103D1000828842F00102828004E082884FF6FE73BE
:103D20001A40828070470022028B4FF6F7731A40C8
:103D30000A43028370470022028B4FF2FF731A403E
:103D40000B0642EA1342028370470022828B4FF631
:103D5000F7731A400A43828370470022828B4FF226
:103D6000FF731A400B0642EA134282837047002217
:103D7000028B4FF6FB731A400A43028370470022FE
:103D8000028B4FF6FF331A400B0642EA13420283BE
:103D900070470022828B4FF6FB731A400A438283DE
:103DA00070470022828B4FF6FF331A400B0642EA1F
:103DB0001342828370470022028B4FF67F731A40B2
:103DC0000A43028370470022028BC2F30E020B06E5
:103DD00042EA1342028370470022828B4FF67F73C0
:103DE0001A400A43828370470022828BC2F30E027C
:103DF0000B0642EA1342828370470022028C4FF680
:103E0000FD731A400A43028470470022028C4FF669
:103E1000F7731A400A43028470470022028C4FF65F
:103E2000DF731A400B0542EA1342028470470022F6
:103E3000028C4FF67F731A400B0542EA134202844C
:103E400070470022028C4FF6FF531A400B0642EADD
:103E50001342028470470022028C4FF2FF731A4013
:103E60000B0642EA1342028470470022028C4DF690
:103E7000FF731A400B0742EA13420284704710B5E1
:103E8000038C01248C40E443A4B223400384038CBC
:103E900002FA01F4A4B22343038410BD10B5038CCD
:103EA00004248C40E443A4B223400384038C02FA2C
:103EB00001F4A4B22343038410BD30B5048C012364
:103EC0008B40DB439BB21C40048409B1082912D10A
:103ED00000F1180303EB61031C684FF68F731C405D
:103EE00000F1180303EB61031C6000F1180303EBFE
:103EF00061031A6019E00B1F9CB200F1180303EB79
:103F000064031C6848F6FF731C400B1F9DB200F150
:103F1000180303EB65031C6013061C0C0B1F9DB2FA
:103F200000F1180303EB65031C6030BD21B102886A
:103F300042F00202028004E0028840F2FD331A409F
:103F40000280704721B1028842F00402028004E03E
:103F5000028840F2FB331A400280704721B1828808
:103F600042F08002828004E082884FF67F731A401C
:103F700082807047028840F2F7331A40028002883C
:103F80000A430280704782884FF68F731A408280FE
:103F900082880A438280704702894FF6F8731A407C
:103FA000028102890A430281704702894FF67F73BA
:103FB0001A40028102890A43028170478184704756
:103FC0008185704781867047018770478187704778
:103FD000A0F8401070470288D2B2028002880A43DB
:103FE000028070470146888E70470146088F7047EF
:103FF0000146888F70470146B1F84000704701467E
:10400000888C70470146088D704702460020138A4D
:104010000B4201D0012000E000207047CA43028219
:10402000704730B50246002000230024158A05EAB7
:104030000103958905EA010413B10CB1012000E0E8
:10404000002030BDCA4302827047704770477047F6
:1040500010B500F009F8006810BD10B5044600F076
:1040600003F8046010BD000001487047704700006D
:104070009400002000487047940000207546FFF728
:10408000F9FFAE4605006946534620F00700854615
:1040900018B020B5FDF7AAFFBDE820404FF000069C
:1040A0004FF000074FF000084FF0000B21F0070120
:1040B000AC46ACE8C009ACE8C009ACE8C009ACE863
:1040C000C0098D4670470446AFF300802046FCF7D8
:1040D00078F8000003494FF01800ABBE70470000AD
:1040E00009000000260002007047000070B50400BF
:1040F0000D4601D0012200E000220A430B4B22F0C2
:1041000000429A1AD20F0AD109A20CCA00F0E6F8AE
:1041100005D20120FFF7A1FF07A103C970BD294601
:104120002046BDE8704000F055B900000000F07F67
:104130000000000000000000010000000000F87F07
:1041400002494FF0000000F0C8BD00000000F87FF9
:1041500002494FF0000000F0C0BD00000000F87FF1
:1041600000B54FF4001E1EEB410F08BF002898BF9A
:104170001EEB430F08BF002A26D85DF804EBAFF30F
:10418000008051EA030C06D4994208BF904210D631
:10419000EFF3008070478B4208BF8242EFF300804C
:1041A00020F0104038BF40F0004080F3008878BF16
:1041B00070474FF0010C38BFBCF1020F68BFBCF173
:1041C000000FEFF3008070475DF804EB1CF4502FF4
:1041D0003FF4B6AF00F0B3BD4FF0807212EB400F6A
:1041E00098BF12EB410F1DD8AFF3008050EA0102D7
:1041F00004D488420DD6EFF3008070478142EFF37C
:10420000008020F0104038BF40F0004080F300886C
:1042100070474FF0010238BF022A68BF002AEFF34F
:10422000008070471CF4502F00F01E8200F087BD04
:104230004FEAC12303B40A1543EA505318BF43F0B1
:1042400000430CD4A2F56072D2F19E0211DBFF2A6A
:10425000CCBF002123FA02F1084602B0704701F1F9
:10426000804212F5801F80F204804FF0000002B0FF
:10427000704703BCDFF828C0012841EB010313F5A8
:10428000001F88BF4CF4803C3FF662AF3CBF6FEA32
:10429000E1707047AFF300806FEAE1707047000093
:1042A000E800020410F0004314BF4142014643F00D
:1042B0008043B1FA81FC03F1F87311FA0CF1A3EB1E
:1042C0000C534FEA415008BF704703EBE1217047A0
:1042D0004FF080430146FFF7ECBF000051EA030CAA
:1042E00017D41CF5801F58BFBCF5801F00F1068055
:1042F000994218BF704708BF9042704707D711F521
:10430000801F58BF13F5801F19D499427047894206
:1043100070471CF5801F08D5BCF5801FF7D58B4270
:1043200018BF704708BF824270474FF4001C1CEB57
:10433000410F38BF1CEB430F01D28B427047DFF8AF
:1043400008C0FFF70DBF00001900160453EA010C66
:1043500017D41CF5801F58BFBCF5801F00F10680E4
:104360008B4218BF704708BF8242704707D713F5CA
:10437000801F58BF11F5801F19D48B4270479B4294
:1043800070471CF5801F08D5BCF5801FF7D59942F2
:1043900018BF704708BF904270474FF4001C1CEBD9
:1043A000430F38BF1CEB410F01D29942704783EA9B
:1043B000010182EA000081EA030380EA0202DFF8D9
:1043C00010C083EA010182EA0000FFF7C9BE0000C5
:1043D000190016044FF0E04C4CF07F6C70B511EAF8
:1043E0000C0F00F078803CEA010E00F07D8011F0A7
:1043F000004F40F087804FEA115C21EA0C5141F4F4
:1044000080110CF1FD0C5FEA5C0C0CF5C07C02D352
:10441000400041EB01014FF000034FF080424FEAB2
:10442000812141EA90514FEA8020A1F180414FF073
:10443000805E8C1A22BFB4EB0E04214602EB4E02C2
:10444000400041EB01015FEA5E0EF2D171EB020424
:1044500007D3B0F1004574F1000422BF214628467D
:10446000521C400041EB01014FF0804EC51A71EB28
:10447000020408D3B5EB0E0574F1000422BF2146F7
:10448000284603EB4E03400041EB01014FEA5E0E6C
:10449000BEF1800FEAD151EA000418BF0224980A45
:1044A0004FEA92215FEA340440EA825001EB0C515A
:1044B00000D170BD640050F10000244241F10001C0
:1044C00008BF20F0010070BDDEF5800E50F1000045
:1044D00041F1000170BD50EA013C00D170BD01F016
:1044E00000414FF0000070BDBDE8704050EA013C53
:1044F000DFF81CC07FF42CAEAFF30080094258BF38
:10450000704701E0BDE870404FF00000014970477E
:10451000170000040000F87F00F5000C1CF0FE4FAF
:1045200009D0C1104FEA407001F1605158BF704787
:10453000A1F1E04170471CF4000F08D00146400093
:1045400008BF70474FF000004FEA30017047DFF8B6
:1045500014C0420240F08E80AFF3008040F4E001CE
:10456000104670471800000490EA010F48BF81F020
:10457000004100F1E482421A3CBF801A89184FEAD8
:10458000D0524FF07F4C1CEA410FA2EBD15318BF21
:104590009CEA026F00F040804FF0004C4CEA002093
:1045A0004CEA012121FA03FC10EB0C0C23D202F19E
:1045B000FF325FEA1C2040EBC25038BF70471CF04E
:1045C0007F0F4FEA400C18BFBCF17F4F38BF7047D8
:1045D000C3F12003994008BF20F00100BCF17F4FD8
:1045E00038BF7047A0F1C0404FF0FF0141EAD05101
:1045F0004FEAC15070474FEA3C00000A40EBC250FE
:1046000028BF1CF0FF0F4FEA400CE1D018BFBCF1EF
:104610007F4F38BF7047E5E79CEA026F05D010EA8C
:104620005C0F08BF00F000407047BCEB410F4FEA41
:10463000400228BF9445DFF828C0C0F01580AFF3D2
:104640000080B2EB410F05D012F1807F08BF7047A8
:104650000846704790EA010F58BF704701487047FD
:10466000010000040000C07F014800F036BB0000DC
:104670000000C07F014800F030BB00000000C07F98
:104680004FF47F0C1CEAD0121EBF1CEAD11392EA31
:104690000C0F93EA0C0F00F0A58090EA010F48BFC1
:1046A00042F4807240F4000C41F400002CF07F4191
:1046B00020F07F4000B58142A2EB03020FF2401CC4
:1046C000ACEB504EC0F100009EF800E04FEA4E0EF9
:1046D00000FB0EFC38BF49004FEA2C1C02F5FA0221
:1046E0000CFB0EF34FEACE1E4FEA112C4FEAC1210C
:1046F0000EEB635E0EFB0CFC4FEA1C5300FB031138
:104700004FEA112C4FEA01310EFB0CFC02F4807EC3
:1047100042EB22424FEADC4C00FB0C11C14228BFA5
:1047200009184CEB0333012924BF4EF0020E4EF062
:10473000804E10EB410F24BF4EF0010E4EF0804E24
:1047400008BF4EF0040E4EF008015DF804EB43EB99
:10475000C25018BFB2F57C0F38BF704741EAC07134
:1047600008BF20F00100B2F57C0F38BF704729D593
:1047700012F0F00F1CBF00F1C04000F00040704785
:10478000008182838485868788898B8C8D8E8F912A
:104790009293959697999A9C9D9FA0A2A3A5A7A84E
:1047A000AAACAEB0B2B3B5B7B9BCBEC0C2C5C7C97A
:1047B000CCCED1D4D7D9DCDFE2E6E9ECF0F3F7FADE
:1047C000FE0000004FEA400C0CF1807CBCF17E4FF3
:1047D00028BF7047B0F1C0404FF07F404CBF401041
:1047E0004008704790EA010F0CEAD11348BF42F429
:1047F0008072624538BF634507D213F47F0F23D020
:1048000080EA010000F0004070474FF0807C1CEB14
:10481000400F98BF1CEB410FDFF840C03FF624AFBC
:10482000AFF300804FF0807C1CEB400F02BF1CEB0D
:10483000410F0B4870471CEB410F0CBF002020F0CC
:10484000004040EAC250704712F47F0F04BF044892
:10485000704742F0FF004FEAC05070470400000468
:104860000000C07F50EA010C00F113801CF5000F1E
:1048700058BFBCF5000F01D48842704707D710F528
:10488000000F58BF11F5000F15D4884270478942B8
:1048900070471CF5000F04D5BCF5000FF7D5814219
:1048A00070474FF0807C1CEB400F38BF1CEB410F72
:1048B00001D281427047DFF808C0FFF78DBC0000CD
:1048C00009001204C2154FEA002318BF43F0004349
:1048D00005D4D2F19E0213D923FA02F07047B0F149
:1048E0004F4F0DD812F0FF0208BF23F000434FF0E6
:1048F0000000D2F19E0223FA02F1A0EB0100704702
:10490000DFF82CC04FEA4001B1F17F4F88BF4CF473
:10491000803C3FF6AFAE1EBF6FEAE07080F0004013
:104920007047AFF300806FEAE07080F0004070479E
:1049300048000204C2154FEA002318BF43F00043A9
:1049400005D4D2F19E020AD323FA02F070474FEA4F
:104950004001B1F1FE4F02D24FF000007047DFF886
:1049600028C04FEA4001B1F17F4F88BF4CF4803C32
:104970003FF680AE1CBF6FEAE0707047AFF3008077
:104980006FEAE070704700006800020410F0004217
:1049900018BF404242F08042B0FA80F18840A2EB5A
:1049A000C15202F1786208BF7047410642EB2020F5
:1049B00018BF5FF0806C28BF20F0010070474FF0F7
:1049C0008042FFF7E9BF00004FF47F0C1CEAD012D1
:1049D0001EBF1CEAD11392EA0C0F93EA0C0F00F0F1
:1049E0004A8090EA010F48BF42F480724FF0004CB9
:1049F0004CEA00204CEA01211A44A0FB01C3A2F5B5
:104A00000002BCF1000F18BF43F0010302F4807CE8
:104A1000B3F1004F38BF5B0042EB2242180A40EB73
:104A2000C25028BF13F07F0F18BFB2F57C0F38BFFC
:104A3000704708BF20F00100B2F57C0F38BF704707
:104A40000BD582F0FF0212F5803FC8BF704700F11E
:104A5000C040D8BF00F00040704700F5000C5FEA8E
:104A60004C0C48BF7047B0F1C0404FF07F404CBF86
:104A700040104008704790EA010F0CEAD11348BF7C
:104A800042F48072624538BF634504D280EA010077
:104A900000F0004070474FF0807C1CEB400F98BF47
:104AA0001CEB410F4FF0030C4CF0806C3FF6DCAD7B
:104AB000AFF3008012F47F0F1FBF13F47F0F42F09B
:104AC000FF02D00570470148704700000000C07F1A
:104AD00010B412F47F0F4FEA00204FEA012110D1E9
:104AE000B0FA80F400FA04F0A2EB044213F47F0F52
:104AF00002F5803218BF41F0004100D010BC18BF51
:104B0000604740F00040B1FA81F401FA04F1A3EBF0
:104B1000044310BC03F58033604780F0004090EA06
:104B2000010F7FF528AD81F0004100F008B80000CA
:104B300090EA010F48BF81F000413FF51CAD421AD9
:104B40003EBF82F00042801A89184FEAD0524FF0DF
:104B50007F4C1CEA410FA2EBD15318BF9CEA026FB5
:104B60004FD04FF0004C4CEA00204CEA012121FAD2
:104B700003FCB0EB0C0C0FD412F0FE0F18BF5FEA71
:104B80004C001DD5001240EBC25038BF70471CF0DE
:104B90003F0F18BF70470BE0A2F101025FEA1C2033
:104BA00040EBC25038BF70471CF07F0F18BF7047F2
:104BB000C3F12003994014BF401E20F0010070474C
:104BC0004FEA122316D0004204BF002070474FEA7C
:104BD0009000B0FA80FCA2EB0C02CCF1280C60FA39
:104BE0000CF093EA122F04BF00EBC25070474FEA5B
:104BF000C37070475FEADC1008BF70474FEAC370AC
:104C000070479CEA026F04D010EA5C0F08BF0020D6
:104C10007047BCEB410F4FEA400228BF9445DFF8D4
:104C20002CC0FFF421ADAFF30080B2EB410F06D0F2
:104C300012F1807F08BF704781F00040704790EA12
:104C4000010F48BF7047024870470000020000048F
:104C50000000C07F00F0004343EAD05323F4807388
:104C6000C3F1C10323F0004117291FD8C3F120036A
:104C700010FA03F1C3F1200320F07F4040F400005C
:104C800020FA03F003F0004340EA03000DD00B4686
:104C9000590009D318BF401C06D17FEAE27398BFC0
:104CA000401C38BF20F0010070477047182903EB03
:104CB000912318BF6FF00041013168BF03F000403D
:104CC00009D6400203F0004000F1010004BF12F0D9
:104CD000004F20F00100704770470CF00F03092BC4
:104CE00008BF082000F02B800A2B0BD0082B18BF20
:104CF000704708BF1CF0400F0AD04FF000004FF083
:104D0000000170471CF0400F18BF4FF00040704783
:104D10001CF0100F08D020F0704300F07F4242EAF0
:104D2000D3014FEA4370704700F0604021F07F42AA
:104D300042EA000201F07F4040EA727070471CF4C2
:104D4000801F11D01CF4E02F03D06FEACC31490052
:104D500070474FF04050EFF3008222F0704242EA79
:104D6000000282F3008870474FF000007047000097
:104D70000000000000000000000000000000000033
:104D80000000000000000000000000000000000023
:104D90000000000000000000000000000000000013
:104DA00080018001800180018001800180018001FB
:104DB00080018001800180018001000000008001ED
:104DC0008001000000000000000000000000000062
:104DD0000000CC00CC00CC00CC00CC00CC0000000B
:104DE00000000000000000000000000000000000C3
:104DF00000000000000000000000000000000000B3
:104E000000000000000000000000600C600C600C5E
:104E100030063006FE1FFE1F300638071803FE1F3F
:104E2000FE1F180318038C018C018C010000000088
:104E30008000E003F80F9C0E8C1C8C188C009800EE
:104E4000F801E007800E801C8C188C189C18B80C98
:104E5000F00FE00380008000000000000000000070
:104E6000000000000E181B0C110C11061106110396
:104E700011039B018E01C038C06C60446044304413
:104E800030441844186C0C3800000000000000008A
:104E9000E001F0033807180618063003F001F000AF
:104EA000F8009C310E33061E061C061C063FFC73E0
:104EB000F0210000000000000000000000000000E1
:104EC00000000C000C000C000C000C000C0000009A
:104ED00000000000000000000000000000000000D2
:104EE00000000000000000000000000000000000C2
:104EF000000200038001C000C000600060003000BC
:104F000030003000300030003000300030006000F1
:104F10006000C000C000800100030002000000002B
:104F200020006000C0008001800100030003000633
:104F30000006000600060006000600060006000344
:104F4000000380018001C00060002000000000001C
:104F500000000000000000000000C000C000D806F3
:104F6000F807E001300338070000000000000000EF
:104F70000000000000000000000000000000000031
:104F8000000000000000000000008001800180019E
:104F900080018001FC3FFC3F800180018001800195
:104FA0008001000000000000000000000000000080
:104FB00000000000000000000000000000000000F1
:104FC00000000000000000000000000000000000E1
:104FD000800180010001000180000000000000004D
:104FE00000000000000000000000000000000000C1
:104FF000000000000000E007E007000000000000E3
:1050000000000000000000000000000000000000A0
:105010000000000000000000000000000000000090
:105020000000000000000000000000000000000080
:10503000C000C000000000000000000000000000F0
:10504000000C000C0006000600060003000300032D
:105050008003800180018001C000C000C0006000AA
:1050600060000000000000000000000000000000E0
:10507000E003F007380E180C0C180C180C180C185C
:105080000C180C180C180C180C18180C380EF0070B
:10509000E00300000000000000000000000000002D
:1050A00000018001C001F0019801880180018001A8
:1050B00080018001800180018001800180018001E8
:1050C000800100000000000000000000000000005F
:1050D000E003F80F180C0C180C1800180018000C3E
:1050E000000600038001C000600030001800FC1FB3
:1050F000FC1F000000000000000000000000000095
:10510000E001F807180E0C0C0C0C000C0006C00394
:10511000C007000C001800180C180C18180CF80721
:10512000E00300000000000000000000000000009C
:10513000000C000E000F000F800DC00C600C600C06
:10514000300C180C0C0CFC3FFC3F000C000C000C4D
:10515000000C000000000000000000000000000043
:10516000F80FF80F180018000C00EC03FC071C0ED9
:10517000001C0018001800180C181C0C180EF8075A
:10518000E00300000000000000000000000000003C
:10519000C007F00F381C181818000C00CC03EC0FD7
:1051A0003C0E1C1C0C180C180C18181C380EF007A0
:1051B000E00300000000000000000000000000000C
:1051C000FC1FFC1F000C000600060003800380018A
:1051D000C001C000E00060006000700030003000DE
:1051E000300000000000000000000000000000008F
:1051F000E003F007380E180C180C180C3806F007EE
:10520000F007180C0C180C180C180C18380CF80FA8
:10521000E0030000000000000000000000000000AB
:10522000E003F007380E1C0C0C180C180C181C1C92
:10523000381EF81BE0190018000C000C1C0EF807B3
:10524000F00100000000000000000000000000006D
:10525000000000000000000000008001800100004C
:1052600000000000000000000000000000008001BD
:1052700080010000000000000000000000000000AD
:10528000000000000000000000008001800100001C
:10529000000000000000000000000000000080018D
:1052A00080010001000180000000000000000000FB
:1052B00000000000000000000000000000000010DE
:1052C000001C800FE003F8001800F800E003800FD6
:1052D000001C0010000000000000000000000000A2
:1052E0000000000000000000000000000000F81FA7
:1052F000000000000000F81F000000000000000097
:10530000000000000000000000000000000000009D
:105310000000000000000000000000000000080085
:105320003800F001C007001F0018001FC007F0017F
:10533000380008000000000000000000000000002D
:10534000E003F80F180C0C180C180018000C0006DD
:1053500000038001C000C000C00000000000C000C9
:10536000C00000000000000000000000000000007D
:105370000000E00718180420C229224A11440944F9
:105380000944094409221113E20C024004201818B0
:10539000E007000000000000000000000000000026
:1053A00080038003C006C006C006600C600C301885
:1053B00030183018F83FF83F1C700C600C6006C0C5
:1053C00006C0000000000000000000000000000017
:1053D000FC03FC0F0C0C0C180C180C180C0CFC0724
:1053E000FC0F0C180C300C300C300C300C18FC1F5F
:1053F000FC070000000000000000000000000000AA
:10540000C007F01F38381C300C700660060006001C
:10541000060006000600060006600C701C30F01F37
:10542000E007000000000000000000000000000095
:10543000FE03FE0F060E061806180630063006306C
:10544000063006300630063006180618060EFE0F27
:10545000FE0300000000000000000000000000004B
:10546000FC3FFC3F0C000C000C000C000C00FC1F6F
:10547000FC1F0C000C000C000C000C000C00FC3F8E
:10548000FC3F0000000000000000000000000000E1
:10549000F83FF83F18001800180018001800F81F0F
:1054A000F81F18001800180018001800180018003D
:1054B00018000000000000000000000000000000D4
:1054C000E00FF83F3C780E6006E007C003000300E1
:1054D00003FE03FE03C007C006C00EC03CF0F83F49
:1054E000E00F0000000000000000000000000000CD
:1054F0000C300C300C300C300C300C300C30FC3FCD
:10550000FC3F0C300C300C300C300C300C300C30BC
:105510000C3000000000000000000000000000004F
:105520008001800180018001800180018001800173
:105530008001800180018001800180018001800163
:1055400080010000000000000000000000000000DA
:10555000000600060006000600060006000600061B
:105560000006000600060006180618063807F003B5
:10557000E00100000000000000000000000000004A
:1055800006300618060C060606038601C6006600ED
:105590007600DE008E0106030606060C06180630AD
:1055A0000660000000000000000000000000000095
:1055B000180018001800180018001800180018002B
:1055C0001800180018001800180018001800F81F1C
:1055D000F81F0000000000000000000000000000B4
:1055E0000EE01EF01EF01EF036D836D836D836D86B
:1055F00066CC66CC66CCC6C6C6C6C6C6C6C686C39C
:1056000086C3000000000000000000000000000051
:105610000C301C303C303C306C306C30CC30CC30FA
:105620008C310C330C330C360C360C3C0C3C0C38E7
:105630000C3000000000000000000000000000002E
:10564000E007F81F1C380E70066003C003C003C0DB
:1056500003C003C003C003C006600E701C38F81FEF
:10566000E007000000000000000000000000000053
:10567000FC0FFC1F0C380C300C300C300C300C18AC
:10568000FC1FFC070C000C000C000C000C000C00B4
:105690000C000000000000000000000000000000FE
:1056A000E007F81F1C380E70066003E003C003C05B
:1056B00003C003C003C007E006630E3F1C3CF83F75
:1056C000E0F700C000000000000000000000000043
:1056D000FE0FFE1F06380630063006300638FE1F65
:1056E000FE0706030606060C0618061806300630E6
:1056F0000660000000000000000000000000000044
:10570000E003F80F1C0C0C180C180C001C00F8031C
:10571000E00F001E0038063006300E301C1CF80F5B
:10572000E007000000000000000000000000000092
:10573000FE7FFE7F80018001800180018001800169
:105740008001800180018001800180018001800151
:1057500080010000000000000000000000000000C8
:105760000C300C300C300C300C300C300C300C3059
:105770000C300C300C300C300C300C301818F81F7A
:10578000E007000000000000000000000000000032
:1057900003600630063006300C180C180C18180C74
:1057A000180C380E30063006700760036003C00125
:1057B000C001000000000000000000000000000028
:1057C0000360C361C361C3616633663366336633A6
:1057D000663366336C1B6C1B6C1B2C1A3C1E380E1C
:1057E000380E000000000000000000000000000073
:1057F0000FE00C7018303018700C600EC00780037A
:105800008003C003E006700C301C18180C300E60CA
:1058100007E00000000000000000000000000000A1
:1058200003C006600C301C383818300C6006E007E6
:10583000C00380018001800180018001800180011E
:1058400080010000000000000000000000000000D7
:10585000FC7FFC7F006000300018000C0006000395
:105860008001C0006000300018000C000600FE7FC0
:10587000FE7F0000000000000000000000000000AB
:10588000E003E00360006000600060006000600012
:105890006000600060006000600060006000600008
:1058A0006000600060006000E003E00300000000B2
:1058B00030003000600060006000C000C000C00028
:1058C000C001800180018001000300030003000685
:1058D00000060000000000000000000000000000C2
:1058E000E003E003000300030003000300030003E0
:1058F0000003000300030003000300030003000390
:105900000003000300030003E003E00300000000C5
:105910000000C001C0016003600360033006300670
:10592000180C180C0000000000000000000000002F
:105930000000000000000000000000000000000067
:105940000000000000000000000000000000000057
:105950000000000000000000000000000000000047
:10596000FFFFFFFF0000000000000000000000003B
:105970000C000C000C000C000C000C0000000000DF
:105980000000000000000000000000000000000017
:105990000000000000000000000000000000000007
:1059A00000000000000000000000F003F8071C0CDD
:1059B0000C0C000FF00FF80C0C0C0C0C1C0FF80F5B
:1059C000F0180000000000000000000000000000CF
:1059D00018001800180018001800D803F80F380C29
:1059E000181818181818181818181818380CF80F4C
:1059F000D8030000000000000000000000000000CC
:105A000000000000000000000000C003F007300E9E
:105A1000180C1800180018001800180C300EF007A9
:105A2000C0030000000000000000000000000000B3
:105A300000180018001800180018C01BF01F301CB8
:105A4000181818181818181818181818301CF01FDB
:105A5000C01B00000000000000000000000000006B
:105A600000000000000000000000C003F00F300C38
:105A70001818F81FF81F180018003818301CF00FFD
:105A8000C00700000000000000000000000000004F
:105A9000800FC00FC000C000C000F007F007C000BA
:105AA000C000C000C000C000C000C000C000C000F6
:105AB000C000000000000000000000000000000026
:105AC00000000000000000000000E00DF80F180EBC
:105AD0000C0C0C0C0C0C0C0C0C0C0C0C180EF80F09
